:100000008A110B288B160800FE00030EF0000A0868
:10001000F1008A15A12E8A110D28FA01FB01831324
:10002000A0308400D0308A15E7258A1183018A1117
:10003000372F83120317C801C901CA01CB01CC01B4
:10004000CD01A001A101C601C7014830F60005306D
:100050008A11FE268A1183120317CE004E08031D53
:10006000322833283C284A30F60006308A11FE2612
:100070008A1183120317CE004E08031D4028412821
:100080004A284C30F60007308A11FE268A11831266
:100090000317CE004E08031D4E284F288D2A49080D
:1000A00083120313B4008312031748088312031347
:1000B000B3008A116C278A11831203133608831246
:1000C0000317A50083120313350883120317A40036
:1000D00083120313340883120317A300831203133C
:1000E000330883120317A2004B0883120313B400D2
:1000F000831203174A0883120313B3008A116C2773
:100100008A1183120313360883120317A90083127E
:100110000313350883120317A8008312031334084E
:1001200083120317A70083120313330883120317E4
:10013000A6004D0883120313B400831203174C0862
:1001400083120313B3008A116C278A1183120313DD
:10015000360883120317AD00831203133508831288
:100160000317AC0083120313340883120317AB0088
:1001700083120313330883120317AA00250883127E
:100180000313B60083120317240883120313B50068
:1001900083120317230883120313B4008312031777
:1001A000220883120313B3000030BA000130B900F3
:1001B0008630B800A030B7000030BE000030BD006F
:1001C000B730BC009830BB008A11BA248A11831260
:1001D0000313360883120317B10083120313350883
:1001E00083120317B000831203133408831203171A
:1001F000AF0083120313330883120317AE002908DC
:1002000083120313B6008312031728088312031303
:10021000B50083120317270883120313B400831257
:100220000317260883120313B3000030BA0001300D
:10023000B9008630B800A030B7000030BE000030F2
:10024000BD00B730BC009830BB008A11BA248A11B7
:1002500083120313360883120317B50083120313A6
:10026000350883120317B400831203133408831272
:100270000317B30083120313330883120317B2006A
:100280002D0883120313B600831203172C08831260
:100290000313B500831203172B0883120313B40052
:1002A000831203172A0883120313B3000030BA0025
:1002B0000130B9008630B800A030B7000030BE0071
:1002C0000030BD00B730BC009830BB008A11BA24A2
:1002D0008A1183120313360883120317B90083129D
:1002E0000313350883120317B8008312031334086D
:1002F00083120317B7008312031333088312031703
:10030000B6003108BD003008BC002F08BB002E0825
:10031000BA003508C1003408C0003308BF003208F5
:10032000BE003908C5003808C4003708C3003608C5
:10033000C2003B0883160313A100831203173A0877
:1003400083160313A000831203173F0883160313B9
:10035000A300831203173E0883160313A20083121F
:100360000317430883160313A500831203174208DB
:1003700083160313A4002108A7002008A600210863
:100380002302031DC52920082202031CC829C929EC
:10039000D22920082202A8002108031C210A2302D6
:1003A000A900D429A801A90123082502031DDA29DF
:1003B00022082402031CDD29DE29E7292208240261
:1003C000AA002308031C230A2502AB00E929AA017D
:1003D000AB010C302702813003192602031CF129DE
:1003E000F229042A0C302902813003192802031C47
:1003F000FA29FB29042A0C302B02813003192A0226
:100400000318032A042A082A013083120317C6009E
:100410000D30831603132702DE3003192602031C56
:10042000122A132A292A0D302902DE300319280244
:10043000031C1B2A1C2A292A0D302B02DE3003192B
:100440002A02031C242A252A292A01308312031791
:10045000C700831603132C03031D2F2A302A5F2A9B
:10046000831203174603031D362A372A512A033005
:10047000831603133B0203183E2A3F2A412A013008
:10048000BB07BA0103303B02031C472A482A8D2AC6
:10049000AC010530F300F40101308A11E9238A111F
:1004A0008D2A83160313BB010130AC000530F30025
:1004B000F401F40A01308A11E9238A118D2A83128A
:1004C00003174703031D652A662A822A0330831611
:1004D00003133A0203186D2A6E2A702A0130BA07F4
:1004E000BB0103303A02031C762A772A8D2A013099
:1004F000AC000530F300F401F40A01308A11E9235D
:100500008A118D2A83160313BA01AC010530F3005A
:10051000F40101308A11E9238A1108008A11192097
:100520008A11C230F2000030F3008A11D0278A11FC
:100530008A1538278A117A30F2008A152B268A11FB
:100540008A15D3258A11CF30F2008A1554268A11D4
:10055000831603134E08031DAE2AAF2AB32A0030B8
:100560008A1574278A11831603133503031DB92ACC
:10057000BA2AC52A7A08031DBE2ABF2AC52AB40191
:10058000AD01AE018A157F268A118A111B258A11B9
:100590007B30F2008A1546268A1101308316031338
:1005A000B10732303102031CD62AD72AE02AB10122
:1005B00032080319DC2ADE2A0130DF2A0030B200BB
:1005C0007A08031DE42AE52A232B7B03031DE92A6D
:1005D000EA2AEC2AB301372B03307B06031DF12AEC
:1005E000F22A0A2B0130B300B401AD01AE018A1525
:1005F0007F268A11831603134E03031D002B012B44
:10060000052B8A15F3268A11372B00308A1574279B
:100610008A11372B02307B06031D0F2B102B372B33
:100620003308031D142B152B1C2B0130B400643030
:10063000AD000030AE00372BB401AD01AE018A151C
:100640007F268A11372B0130B400AD01AE01033093
:100650007B06031D2C2B2D2B372B4E03031D312B1B
:10066000322B332B012B00308A1574278A11831605
:1006700003133403031D3D2B3E2B602B7A03031D14
:10068000422B432B482B32088A11D0258A11632B29
:100690008A11BC268A11831603132D082E04031910
:1006A000522B532B632B0130AD020030031CAE03E1
:1006B000AE022D082E04031D5E2B5F2B632BB401AD
:1006C0008A157F268A11831603134E08031D692B92
:1006D0006A2B6E2B00308A1574278A117A088316CC
:1006E0000313B5000800F600F70176088A15702696
:1006F0008A11003A03197D2B7E2B872B73088A15EC
:1007000015268A11003A031D862B872BDF2B01301B
:10071000F700E72B7403031D8E2B8F2B9D2B0130CD
:10072000F500730A952B0310F50DFF3E031D932B67
:100730007508831603138504E72B7408031DA12B8A
:10074000A22B872B03307306031DA72BA82BA92BE5
:10075000872B0130F500730AAF2B0310F50DFF3E18
:10076000031DAD2B7508FF3A831603138505E72B90
:100770007403031DBC2BBD2BCB2B0130F500730A7A
:10078000C32B0310F50DFF3E031DC12B7508831607
:1007900003138704E72B7408031DCF2BD02B872B63
:1007A0000130F500730AD62B0310F50DFF3E031D33
:1007B000D42B7508FF3A831603138705E72B7608B9
:1007C000003A03198A2B013A0319B82B872B7708B3
:1007D0000800F60076088A1570268A11003A031977
:1007E000F22BF32BFC2B73088A1515268A11003A7D
:1007F000031DFB2BFC2B4B2C532C7403031D012CD2
:10080000022C102C0130F500730A082C0310F50D92
:10081000FF3E031D062C7508831203138504532C19
:100820007408031D142C152CFC2B0130F500730AE1
:100830001B2C0310F50DFF3E031D192C7508FF3A04
:10084000831203138505532C7403031D282C292CB4
:10085000372C0130F500730A2F2C0310F50DFF3EE5
:10086000031D2D2C7508831203138704532C740861
:10087000031D3B2C3C2CFC2B0130F500730A422C51
:100880000310F50DFF3E031D402C7508FF3A83123F
:1008900003138705532C7608003A0319FD2B013A00
:1008A0000319242CFC2B0800003083120313B10021
:1008B0000030B0000030AF000030AE002808270440
:1008C000260425040319652C662CB12C0130B200D6
:1008D000742C0130AD000310A50DA60DA70DA80DB9
:1008E000AD0B6B2C0130B207A81F772C782C692C2C
:1008F0000130AD000310AE0DAF0DB00DB10DAD0B5D
:100900007A2C28082C02031D8F2C27082B02031D8C
:100910008F2C26082A02031D8F2C25082902031C70
:10092000922C932CA22C2508A9022608031C260F22
:10093000AA022708031C270FAB022808031C280F54
:10094000AC022E1401300310A80CA70CA60CA50CA9
:10095000FF3E031DA32C0130B202031DB02CB12CAD
:10096000782C3108A8003008A7002F08A6002E0810
:10097000A5000800831203133E083D043C043B0419
:10098000031DC32CC42CCD2C0030B6000030B500A4
:100990000030B4000030B3001A2D3E08A8003D0816
:1009A000A7003C08A6003B08A50037083B07BF008E
:1009B0000030031801303807C1010318C10A3C0791
:1009C000C0000318C10A39084107C2010318C20A4E
:1009D0003D07C1000318C20A3A0842073E07C20099
:1009E0004208F5004108F4004008F3003F08F20017
:1009F0003608F9003508F8003408F7003308F60027
:100A00008A1174268A11750883120313AC007408C6
:100A1000AB007308AA007208A9008A1154248A1135
:100A2000831203132808B6002708B5002608B4006F
:100A30002508B30008008A1590268A11F900790864
:100A4000831603133F06031D262D272D302D03305B
:100A50003E0203182C2D2D2D312D0130BE07312DD6
:100A6000BE017908BF0003303E02031C382D392D2A
:100A7000772D4008790603193E2D3F2D522D790818
:100A8000C0004003031D452D462D4C2DAF01B00184
:100A9000BD010130BC00772D0230BC00AF01B001B8
:100AA000BD01772D4003031D562D572D772D2F0A9D
:100AB000031D5F2D300A03195E2D5F2D652D01305A
:100AC000AF070318B00A0030B007003030023230F0
:100AD00003192F02031C6D2D6E2D772D3D08031D6C
:100AE000722D732D772D0130BD000330BC0008003E
:100AF0007908031D7C2D7D2D7F2D0130CF2D2030D9
:100B0000F2000030F3008A11D0278A11003A03194D
:100B10008A2D8B2D8C2D7D2D2E30831203132502D3
:100B2000E03003192402031C962D972D9D2D790882
:100B30008400643083138000CE2D2C302502883051
:100B400003192402031CA52DA62DAC2D79088400C1
:100B50004B3083138000CE2D2A302502303003190C
:100B60002402031CB42DB52DBB2D7908840032302E
:100B700083138000CE2D26302502AC3003192402C9
:100B8000031CC32DC42DCA2D79088400193083138A
:100B90008000CE2D79088400831380010030080086
:100BA00083120313AD00AE012E30F9008A117825AF
:100BB0008A11003A0319DD2DDE2DDF2D252E8A1531
:100BC0007F268A11152E2D088A15F8258A11252EC3
:100BD00001308A15F8258A11831203132D088A150E
:100BE00001268A11252E01308A15F8258A11013037
:100BF0008A1501268A11831203132D088A150B26E4
:100C00008A11252E01308A15F8258A1101308A159E
:100C100001268A1101308A150B268A1183120313CB
:100C20002D088A15EF258A11252E831203132E080D
:100C3000193A0319E32D2B3A0319E82D793A0319D0
:100C4000F32D2F3A0319022E252E0800F700F60186
:100C5000740803192C2E2D2E3F2E77088A15702626
:100C60008A11003A0319352E362E3F2E73088A1545
:100C700015268A11003A031D3E2E3F2E6A2E0130A2
:100C8000F600722E74088400831203130508F50021
:100C9000730A4C2E0310F50CFF3E031D4A2E7508F7
:100CA00080007408840001308005722E740884006E
:100CB000831203130708F500730A602E0310F50C66
:100CC000FF3E031D5E2E750880007408840001300D
:100CD0008005722E7708003A0319422E013A031953
:100CE000562E3F2E76080800003083120313A4000E
:100CF0000030A3000030A2000030A100721C812E41
:100D0000822E992E7608A107770803110318013E59
:100D100003198B2EA207780803110318013E03194B
:100D2000922EA307790803110318013E0319992E87
:100D3000A4070130A0000310F60DF70DF80DF90D12
:100D4000A00B9B2E01300310F50CF40CF30CF20CED
:100D5000FF3E031DA32E7508740473047204031D63
:100D6000B22EB32E7E2E2408F5002308F4002208AC
:100D7000F3002108F200080083120313AD012D30A7
:100D8000F9008A1178258A11003A0319C82EC92E54
:100D9000CA2EFD2E8A157F268A111930831203135D
:100DA0002D02031CD42ED52ED92E01308A15F825FC
:100DB0008A113230831203132D02031CE02EE12E20
:100DC000E52E01308A1501268A114B308312031358
:100DD0002D02031CEC2EED2EF12E01308A150B2670
:100DE0008A116430831203132D02031CF82EF92E8E
:100DF000FD2E01308A15EF258A110800F700F80151
:100E00007608031D042F052F072F0130362F770892
:100E10008A1555278A11F9007908031D102F112F03
:100E2000152F8A15DC258A11F9007908031D192F61
:100E30001A2F2A2F7830F2008A1509278A11F90013
:100E40007808031D242F252F2A2F79080319292F0D
:100E50002A2F1A2F7908031D2E2F2F2F352F7608B2
:100E6000F2008A15DE268A11F9007908080083123B
:100E70000313C3018A11F7278A118A1520278A11C3
:100E80008A1562268A11C1308A15E1258A118A11D4
:100E900002208A118A15D1258A118A15DA278A112A
:100EA000831603134103031D562F572F502FC101E3
:100EB0008A119F278A11013083120313C3070A3056
:100EC0004302031C642F652F502FC3018A118E2209
:100ED0008A11502F8A110B28003083120313A800A7
:100EE0000030A7000330A600FF30A5003308F20051
:100EF0003408F300F401F5010030F9000030F80087
:100F00001330F7008830F6008A1174268A117508AC
:100F100083120313AC007408AB007308AA007208B4
:100F2000A9008A1154248A11831203132808B600D9
:100F30002708B5002608B4002508B300080083166A
:100F400003133908031DA52FA62FAE2F0430F3007D
:100F5000F40101308A11E9238A11CF2F02303802BF
:100F60000318B32FB42FBD2F0430F300F401F40A9B
:100F700001308A11E9238A11C42F0430F300F401EF
:100F800001308A11E9238A11013083160313B8074F
:100F900005303802031CCD2FCE2FCF2FB80108000B
:100FA00072087304031DD52FD62FD82F0130F62FCA
:100FB000720884008317731C83130308F800A030A1
:100FC000F4000408F5000D30F60074088400831363
:100FD0000008F700F40A750884008317F81F8313CC
:100FE00077088000F50AF60BE52F00300800713015
:100FF000831603138F0083120313850187010800F2
:101BA2008B17080083160313B6010800831603136C
:101BB200B60100300800831203139F14003008009E
:101BC200F20072088312031381000800640080018E
:101BD200840A0406031900340406E82DF700F30111
:101BE2007708F40001308A11E9238A150800F7000A
:101BF200F3017708F40000308A11E9238A150800FE
:101C0200F700F301F30A7708F40000308A11E923A0
:101C12008A150800F7000230F3007708F40000305C
:101C22008A11E9238A150800F200063072020318AD
:101C32001B2E1C2E1E2E01301F2E00300800F2001B
:101C4200083072020318262E272E292E01302A2E42
:101C5200003008007208031D2F2E302E312E372E31
:101C620072088400831603133708800008000530C9
:101C7200F300F401F40A00308A1173238A15F80084
:101C820083160313B701780808007208031D4A2E51
:101C92004B2E4C2E532E72088400831603133C08DD
:101CA2008000BC0108007208031D582E592E5A2EBE
:101CB200612E720884008316031336088313800092
:101CC2000800FB308B05DF30831603138105EF30EC
:101CD2008105F7308105F830810501150800F20011
:101CE20072080319752E762E7B2E7203031D7A2E2F
:101CF2007B2E7D2E01307E2E0030080000308A15AA
:101D0200F8258A1500308A1501268A1500308A15B1
:101D12000B268A1500308A15EF258A150800F8016E
:101D22000330F3007830F40000308A1126268A1539
:101D3200780803199D2E9F2E0130A02E0030080036
:101D42000B1DA42EA52EAE2E0B11C1308312031330
:101D52008100013083160313C10071088A00700EDE
:101D62008300FE0E7E0E09000330F300F401F40A34
:101D720000308A1173238A15F80083160313C001F9
:101D8200BF01BE01AF01B001BD01BC01780808006E
:101D92000430F300F40101308A1173238A15F8002C
:101DA2000430F300F40101308A11E9238A15831605
:101DB2000313B901B801780808007208031DE22E66
:101DC200E32EE52E0130F22E7208840083160313EF
:101DD2001E0883178000840A831203131E088000E2
:101DE20000300800831603133908031DF92EFA2E5A
:101DF200FD2E0130B900052FB9010430F300F401C2
:101E020001308A11E9238A1583160313B8010800E9
:101E12007208031D0D2F0E2F102F01301F2F83125A
:101E220003139F18152F162F1B2F720884000130E1
:101E320080001E2F72088400800100300800831287
:101E420003131F10E8308316031391000730831227
:101E5200031399009F171F138F30831603139F05D7
:101E62009F16E330831203139F051F140800F80125
:101E72000530F3007830F40000308A1126268A15E6
:101E8200003A0319452F462F472F542F7808031D78
:101E92004B2F4C2F512F013083160313B700542FB1
:101EA20083160313B7010800F500F40175088A15BB
:101EB20020268A15003A031D5F2F602F632F013001
:101EC200F400722F7508F300F30DF30D8312031360
:101ED2001F087306E33973069F002130F300F30BEA
:101EE200702F74080800F70077080319792F7A2FEA
:101EF200802F770303197E2F7F2F802F932F770850
:101F020083160313B9003908031D882F892F902FD8
:101F12000430F300F40101308A11E9238A15831693
:101F22000313B80108000530F300F40101308A11EF
:101F320073238A15F8000530F300F40101308A1189
:101F4200E9238A1583160313A001A101A201A301AB
:101F5200A401A501A601A701A801A901AA01AB013B
:101F6200AC01BB01BA0178080800F801F301F401E1
:101F720000308A1173238A15F804F301F30AF4017D
:101F820000308A1173238A15F8040230F300F40139
:101F920000308A1173238A15F804F301F401013029
:101FA2008A1173238A15F8048A157F268A15780800
:101FB2000800F9018A15B5268A15F9048A159427AD
:101FC2008A15F9048A15B6278A15F9048A15C926CD
:101FD2008A15F9048A1538268A15F9048A15D7252F
:101FE2008A15F904FB01FA0183160313B501CF0127
:0E1FF200B401B301AD01AE01B201B1010800AE
:02400E00D43CA0
:00000001FF
