:100000008A110B288B160800FE00030EF0000A0868
:10001000F1008A15142C8A110D28831603138A15F2
:1000200013238A11E5008313A0308400E5308A157C
:1000300024238A11FA01FB0183018A152C2E8312D5
:100040000317C801C901CA01CB01CC01CD01A00130
:10005000A101C601C7014830F60005308A156126A6
:100060008A1183120317CE004E08031D3828392841
:1000700042284A30F60006308A1561268A1183121A
:100080000317CE004E08031D4628472850284C3041
:10009000F60007308A1561268A1183120317CE00F5
:1000A0004E08031D54285528982A49088312031323
:1000B000B40083120317480883120313B3008A1590
:1000C000F9258A1183120313360883120317A5003A
:1000D00083120313350883120317A400831203133A
:1000E000340883120317A300831203133308831207
:1000F0000317A2004B0883120313B40083120317E3
:100100004A0883120313B3008A15F9258A11831252
:100110000313360883120317A9008312031335084B
:1001200083120317A80083120313340883120317E2
:10013000A70083120313330883120317A6004D0888
:1001400083120313B400831203174C0883120313A2
:10015000B3008A15F9258A11831203133608831216
:100160000317AD0083120313350883120317AC0085
:1001700083120313340883120317AB008312031393
:10018000330883120317AA00250883120313B6004D
:1001900083120317240883120313B5008312031775
:1001A000230883120313B400831203172208831257
:1001B0000313B3000030BA000030B9002730B80094
:1001C0001030B7000030BE000030BD001330BC005E
:1001D0008830BB008A118E268A11831203133608D9
:1001E00083120317B1008312031335088312031718
:1001F000B00083120313340883120317AF00831275
:100200000313330883120317AE0029088312031364
:10021000B60083120317280883120313B500831254
:100220000317270883120313B40083120317260849
:1002300083120313B3000030BA000030B900273036
:10024000B8001030B7000030BE000030BD001330E1
:10025000BC008830BB008A118E268A1183120313DA
:10026000360883120317B50083120313350883126F
:100270000317B40083120313340883120317B30067
:1002800083120313330883120317B2002D0883125D
:100290000313B600831203172C0883120313B5004F
:1002A000831203172B0883120313B400831203175E
:1002B0002A0883120313B3000030BA000030B900DB
:1002C0002730B8001030B7000030BE000030BD004D
:1002D0001330BC008830BB008A118E268A1183122D
:1002E0000313360883120317B9008312031335086A
:1002F00083120317B8008312031334088312031701
:10030000B70083120313330883120317B6003108B2
:10031000BD003008BC002F08BB002E08BA0035080D
:10032000C1003408C0003308BF003208BE003908DD
:10033000C5003808C4003708C3003608C2003B08AF
:1003400083160313A100831203173A0883160313BD
:10035000A000831203173F0883160313A300831220
:1003600003173E0883160313A200831203174308E2
:1003700083160313A5008312031742088316031381
:10038000A4002108A7002008A60021082302031DBD
:10039000CB2920082202031CCE29CF29D8292008E6
:1003A0002202A8002108031C210A2302A900DA293D
:1003B000A801A90123082502031DE029220824021F
:1003C000031CE329E429ED2922082402AA002308BA
:1003D000031C230A2502AB00EF29AA01AB010C3054
:1003E0002702813003192602031CF729F8290A2A5B
:1003F0000C302902813003192802031C002A012A2B
:100400000A2A0C302B02813003192A020318092A08
:100410000A2A0E2A013083120317C6000D308316F4
:1004200003132702DE3003192602031C182A192A97
:100430002F2A0D302902DE3003192802031C212A3D
:10044000222A2F2A0D302B02DE3003192A02031C28
:100450002A2A2B2A2F2A013083120317C70083165A
:1004600003136503031D352A362A982A2C03031D1E
:100470003A2A3B2A6A2A831203174603031D412A9C
:10048000422A5C2A03308316031346020318492AC2
:100490004A2A4C2A0130C607C50103304602031C14
:1004A000522A532A982AAC010530F300F401013096
:1004B0008A11B9258A11982A83160313C6010130BF
:1004C000AC000530F300F401F40A01308A11B925BB
:1004D0008A11982A831203174703031D702A712A71
:1004E0008D2A03308316031345020318782A792ACC
:1004F0007B2A0130C507C60103304502031C812A4F
:10050000822A982A0130AC000530F300F401F40A85
:1005100001308A11B9258A11982A83160313C5015F
:10052000AC010530F300F40101308A11B9258A11BC
:10053000080083120313C301C4018A111F208A110A
:10054000CC30F2000030F3008A15D2258A118A15CA
:100550000B258A11E230F2008A1596238A118A113E
:10056000C9248A11DD30F2000030F3008A15A92475
:100570008A118A11EF268A11E430F2008A15C1230C
:100580008A11E330F2008A157C238A11E030F200F0
:100590008A15F2238A11013083160313BD070F3029
:1005A0003D02031CD42AD52A5D2BBD013E08031948
:1005B000DA2ADC2A0130DD2A0030BE005D2B64031C
:1005C000031DE32AE42AE82A83160313C001682BDB
:1005D00003306406031DED2AEE2A092B0130C0000A
:1005E000BF01B801B901C101B601B7018A15D02315
:1005F0008A11831603135803031DFF2A002B042BB3
:100600008A15D8248A11682B00308A15AE258A11E4
:10061000682B02306406031D0E2B0F2B682B40083D
:10062000031D132B142BE42A3F08031D182B192B31
:10063000202B0130BF002830B8000030B900E42A78
:10064000BF01B801B901013083120313C30083163F
:100650000313C101B601B7018A15D0238A11E42A18
:100660006403031D342B352B362BE42A0330640638
:10067000031D3B2B3C2B3F2B0130C000682B02306D
:100680006406031D442B452B682B4008031D492B92
:100690004A2BE42A3F08031D4E2B4F2B502B192BBE
:1006A000BF01B801B901013083120313C400E42A69
:1006B000C001BF01B801B901682B5908003A0319FC
:1006C000302B013A0319582B033A0319DF2A582B10
:1006D000831603133F03031D6E2B6F2B882B3808E3
:1006E00039040319742B752B7B2B0130B8020030B1
:1006F000031CB903B90238083904031D802B812B70
:10070000882BBF010130C1006430B6000030B70053
:10071000831203134408F200831603136208F300E4
:100720008312031343088A15DC268A11D930F2009C
:100730000030F3008A15F1248A11831603135A033B
:10074000031DA32BA42BC02B00308A15E1238A1193
:1007500000308A15AE258A110530F300F40101300E
:100760008A11B9258A1183160313D801C101B60174
:10077000B701C001BF01B801B9018A15D0238A11A0
:10078000831603135B03031DC62BC72B4B2C0030B2
:100790008A15E1238A1100308A15AE258A110530A9
:1007A000F300F40101308A11B9258A11831603136D
:1007B000D801C101B601B701C001BF01B801B9013B
:1007C0004B2C00308A15E1238A1100308A15AE25A2
:1007D0008A110530F300F40101308A11B9258A111C
:1007E00083160313D8016203031DF72BF82B102C7B
:1007F0005D03031DFC2BFD2B022C3E088A11A42750
:100800008A112E2C02305D06031D072C082C0C2C9F
:100810008A1547258A112E2C8A15D0238A112E2C51
:100820004103031D142C152C0C2C8A159A268A11B1
:10083000831603133608370403191F2C202C2E2C83
:100840000130B6020030031CB703B7023608370484
:10085000031D2B2C2C2C2E2CC1010C2C83160313C6
:100860006208C200C82C00308A15E1238A110030CA
:100870008A15AE258A110530F300F40101308A1182
:10088000B9258A1183160313D801082C01308A1563
:10089000E1238A11562C5908003A0319E12B013A39
:1008A0000319332C033A0319462C462C8A151623B8
:1008B0008A11831603135808031D5F2C602C642CC7
:1008C00000308A15AE258A11831603134203031DD7
:1008D0006A2C6B2C762C6208031D6F2C702C762CE6
:1008E000C101B601B7018A15D0238A1183160313FB
:1008F0006203031D7C2C7D2C812C0130C100B601CC
:10090000B7014103031D852C862C9F2C6203031D18
:100910008A2C8B2CA32C5D03031D8F2C902C952CE3
:100920003E088A11A4278A11BC2C02305D06031DE3
:100930009A2C9B2C9F2C8A1547258A11BC2C8A1532
:10094000D0238A11BC2C8A159A268A118316031388
:10095000360837040319AD2CAE2CBC2C0130B6027E
:100960000030031CB703B70236083704031DB92C47
:10097000BA2CBC2CC1019F2C831603135808031DED
:10098000C22CC32C2E2C00308A15AE258A112E2C99
:10099000080083120313AD012D30F2008A1596234F
:1009A0008A112030F2000030F3008A15D2258A1116
:1009B000831603133C08031DDE2CDF2CE92C831265
:1009C00003132D03031DE52CE62CE92C83160313DA
:1009D000B30183122D08031DEE2CEF2CFF2C831680
:1009E0000313B101B201B30100308A157B248A11CF
:1009F000831203132D0883160313BC00422D8316A4
:100A000003133303031D052D062D0E2D0230B100F7
:100A1000B20100308A157B248A11F82C1030831221
:100A2000031327029A30031926020318182D192DD3
:100A30002B2D103029029A30031928020318212D7A
:100A4000222D2B2D10302B029A3003192A02031C61
:100A50002A2D2B2D372D013083160313B3000230BE
:100A6000B100B20100308A157B248A11F82C0130C4
:100A700083160313B1000130B20001308A157B24C4
:100A80008A11F82C0800F600F70176088A15B223BF
:100A90008A11003A03194D2D4E2D572D73088A15D2
:100AA0005B238A11003A031D562D572DAF2D0130BF
:100AB000F700B72D7403031D5E2D5F2D6D2D0130E2
:100AC000F500730A652D0310F50DFF3E031D632D20
:100AD0007508831603138504B72D7408031D712D43
:100AE000722D572D03307306031D772D782D792D28
:100AF000572D0130F500730A7F2D0310F50DFF3ED1
:100B0000031D7D2D7508FF3A831603138505B72D48
:100B10007403031D8C2D8D2D9B2D0130F500730A60
:100B2000932D0310F50DFF3E031D912D75088316BF
:100B300003138704B72D7408031D9F2DA02D572D77
:100B40000130F500730AA62D0310F50DFF3E031DBD
:100B5000A42D7508FF3A831603138705B72D760871
:100B6000003A03195A2D013A0319882D572D770899
:100B70000800F600F70176088A15B2238A11003AB8
:100B80000319C32DC42DCD2D73088A155B238A113B
:100B9000003A031DCC2DCD2D1E2E0130F700262E40
:100BA0007403031DD42DD52DE32D0130F500730AF8
:100BB000DB2D0310F50DFF3E031DD92D75088312A3
:100BC00003138504262E7408031DE72DE82DCD2D73
:100BD0000130F500730AEE2D0310F50DFF3E031DE5
:100BE000EC2D7508FF3A831203138505262E740336
:100BF000031DFB2DFC2D0A2E0130F500730A022E79
:100C00000310F50DFF3E031D002E7508831203131C
:100C10008704262E7408031D0E2E0F2ECD2D0130B5
:100C2000F500730A152E0310F50DFF3E031D132E5C
:100C30007508FF3A831203138705262E7608003ABB
:100C40000319D02D013A0319F72DCD2D770808008F
:100C5000003083120313B1000030B0000030AF0049
:100C60000030AE0028082704260425040319392E75
:100C70003A2E852E0130B200482E0130AD0003100F
:100C8000A50DA60DA70DA80DAD0B3F2E0130B20787
:100C9000A81F4B2E4C2E3D2E0130AD000310AE0D83
:100CA000AF0DB00DB10DAD0B4E2E28082C02031D5B
:100CB000632E27082B02031D632E26082A02031D1C
:100CC000632E25082902031C662E672E762E250822
:100CD000A9022608031C260FAA022708031C270FB7
:100CE000AB022808031C280FAC022E14013003109D
:100CF000A80CA70CA60CA50CFF3E031D772E0130F7
:100D0000B202031D842E852E4C2E3108A800300817
:100D1000A7002F08A6002E08A500080083120313C1
:100D20003E083D043C043B04031D972E982EA12E43
:100D30000030B6000030B5000030B4000030B30021
:100D4000EE2E3E08A8003D08A7003C08A6003B0880
:100D5000A50037083B07BF000030031801303807F3
:100D6000C1010318C10A3C07C0000318C10A3908B1
:100D70004107C2010318C20A3D07C1000318C20A95
:100D80003A0842073E07C2004208F5004108F40055
:100D90004008F3003F08F2003608F9003508F80073
:100DA0003408F7003308F6008A1520278A117508E1
:100DB00083120313AC007408AB007308AA00720816
:100DC000A9008A1128268A11831203132808B60065
:100DD0002708B5002608B4002508B30008008A15C6
:100DE00003248A11F9007908831603134A06031DA8
:100DF000FA2EFB2E042F033049020318002F012F77
:100E0000052F0130C907052FC9017908CA00033031
:100E10004902031C0C2F0D2F4B2F7B087906031959
:100E2000122F132F262F7908FB007B03031D192F88
:100E30001A2F202FBA01BB01C8010130C7004B2F68
:100E40000230C700BA01BB01C8014B2F7B03031D51
:100E50002A2F2B2F4B2F3A0A031D332F3B0A03193E
:100E6000322F332F392F0130BA070318BB0A003055
:100E7000BB0700303B02193003193A02031C412F13
:100E8000422F4B2F4808031D462F472F4B2F013071
:100E9000C8000330C70008007908031D502F512FE8
:100EA000532F0130A32F2030F2000030F3008A15B9
:100EB000D2258A11003A03195E2F5F2F602F512F20
:100EC0002E30831203132502E03003192402031C81
:100ED0006A2F6B2F712F7908840064308313800090
:100EE000A22F2C302502883003192402031C792FED
:100EF0007A2F802F790884004B3083138000A22F33
:100F00002A302502303003192402031C882F892F30
:100F10008F2F79088400323083138000A22F26306F
:100F20002502AC3003192402031C972F982F9E2F03
:100F300079088400193083138000A22F7908840077
:100F4000831380010030080083120313AD00AE014B
:100F50002E30F9008A114C278A11003A0319B12F5B
:100F6000B22FB32FF92F8A15D0238A11E92F2D081C
:100F70008A1535238A11F92F01308A1535238A11F4
:100F8000831203132D088A1547238A11F92F013084
:100F90008A1535238A1101308A1547238A11831255
:100FA00003132D088A1551238A11F92F01308A1550
:100FB00035238A1101308A1547238A1101308A1599
:100FC00051238A11831203132D088A152C238A11A9
:100FD000F92F831203132E08193A0319B72F2B3A4E
:100FE0000319BC2F793A0319C72F2F3A0319D62FAB
:100FF000F92F0800F2007208831203138100080021
:10162400080001348B17080083160313C301080054
:1016340083160313C30100300800831203139F149D
:101644000030080064008001840A04060319003491
:101654000406252BF800F3017808F40001308A1100
:10166400B9258A150800F800F3017808F400003061
:101674008A11B9258A1508007130831603138F0067
:1016840083120313850187010800F800F301F30AAC
:101694007808F40000308A11B9258A150800F8008A
:1016A4000230F3007808F40000308A11B9258A1555
:1016B4000800F200063072020318612B622B642BBF
:1016C4000130652B00300800023083160313AD008F
:1016D400AE01AF01B001B401B50100300800F20061
:1016E400083072020318772B782B7A2B01307B2B6E
:1016F400003008007208031D802B812B822B872B5E
:10170400720884007B088313800008000530F3000E
:10171400F401F40A00308A1143258A15F80083166F
:101724000313C401780808007208031D9A2B9B2B2D
:101734009C2BA32B72088400831603134408831381
:1017440080000800FB308B05DF308316031381050E
:10175400EF308105F7308105F83081050115080067
:10176400F20072080319B72BB82BBD2B7203031DAB
:10177400BC2BBD2BBF2B0130C02B003008007208DE
:10178400031DC52BC62BC72BCF2B720884008316D1
:101794000313470883138000C701080000308A152B
:1017A40035238A1500308A1547238A1500308A1597
:1017B40051238A1500308A152C238A150800F2005B
:1017C40072080319E62BE72BED2B72030319EB2B9D
:1017D400EC2BED2BF12B720883160313E5000800A4
:1017E4007208031DF62BF72BF82B022C72088400C9
:1017F400831603133A0883138000840A3B0880008D
:101804000800F8010330F3007830F40000308A1542
:10181400B2278A1578080319102C122C0130132CC6
:10182400003008000B1D172C182C212C0B11C13073
:10183400831203138100013083160313CB00710854
:101844008A00700E8300FE0E7E0E09000330F30042
:10185400F401F40A00308A1143258A15F800FB01CB
:1018640083160313CA01C901BA01BB01C801C70128
:10187400780808000430F300F40101308A1143258C
:101884008A15F800FA010430F300F401F40A013077
:101894008A11B9258A15F804780808007208031D0E
:1018A400542C552C572C0130642C72088400831658
:1018B40003131E0883178000840A831203131E086F
:1018C400800000300800F9010430F300F401003016
:1018D4008A1143258A15F90483160313B101B20151
:1018E400B301BC0100308A157B248A15F9047908F8
:1018F4000800F8007803031D802C812C8A2C043006
:10190400F300F401F40A00308A11B9258A15912CE8
:101914000430F300F40100308A11B9258A15080057
:101924007208031D962C972C992C0130A82C831235
:1019340003139F189E2C9F2CA42C72088400013042
:101944008000A72C7208840080010030080072080F
:101954007304031DAE2CAF2CB02CBF2C7208840072
:101964008317731C83138316031331088000840ABE
:1019740032088000840A33088000080083120313AD
:101984001F10E030831603139100073083120313F2
:1019940099009F171F138F30831603139F059F16FB
:1019A400E330831203139F051F1408007A08031DF4
:1019B400DC2CDD2CE72C0130FA000430F300F401B8
:1019C40001308A11B9258A15F02CFA010430F3008C
:1019D400F401F40A01308A11B9258A150800720845
:1019E4007304031DF62CF72CF82C0A2D72088400BE
:1019F4008317731C8313831603132D088000840A32
:101A04002E088000840A2F088000840A3008800091
:101A14000800F8010530F3007830F40000308A152E
:101A2400B2278A15003A0319182D192D1A2D272DBE
:101A34007803031D1E2D1F2D242D0130831603133F
:101A4400C400272D83160313C4010800F500F40114
:101A540075088A1571238A15003A031D322D332D1A
:101A6400362D0130F400452D7508F300F30DF30D08
:101A7400831203131F087306E33973069F00213092
:101A8400F300F30B432D74080800F301F401F40A86
:101A940000308A11B9258A15F301F30AF401F40A16
:101AA40000308A11B9258A150230F300F401F40AD2
:101AB40000308A11B9258A15F301F401F40A0130C2
:101AC4008A11B9258A1508000530F300F4010130A4
:101AD4008A1143258A15F8000530F300F40101301A
:101AE4008A11B9258A1583160313A001A101A20145
:101AF400A301A401A501A601A701A801A901AA01A6
:101B0400AB01AC01C601C5010130E500780808004D
:101B1400F901F301F40100308A1143258A15F9040F
:101B2400F301F30AF40100308A1143258A15F904FC
:101B34000230F300F40100308A1143258A15F904B8
:101B4400F301F40101308A1143258A15F9048A1539
:101B5400D0238A1579080800F80078080319B32DF2
:101B6400B42DBA2D78030319B82DB92DBA2DD12D62
:101B74007808FA007A03031DC02DC12DC92D043045
:101B8400F300F40101308A11B9258A15D12D0430EE
:101B9400F300F401F40A01308A11B9258A1508000A
:101BA40072087304031DD72DD82DDA2D0130F82DBA
:101BB400720884008317731C83130308F800A03091
:101BC400F4000408F5000D30F60074088400831353
:101BD4000008F700F40A750884008317F81F8313BC
:101BE40077088000F50AF60BE72D00300800003076
:101BF40083120313A8000030A7000330A600FF30AF
:101C0400A5003308F2003408F300F401F5010030B4
:101C1400F9000030F8001330F7008830F6008A1518
:101C240020278A15750883120313AC007408AB00CF
:101C34007308AA007208A9008A1128268A1583123B
:101C440003132808B6002708B5002608B4002508A1
:101C5400B300080083120313C5018A153E238A15B5
:101C64008A15C0248A158A15A4238A15C1308A11BD
:101C7400FA278A158A1102208A158A1514238A15CF
:101C84008A1568278A15831603134B03031D4B2EED
:101C94004C2E452ECB018A1512238A15013083124E
:101CA4000313C5070A304502031C592E5A2E452E2C
:101CB400C5018A1199228A15452E8A110B28F7002D
:101CC400F8017608031D672E682E6A2E0130992EBE
:101CD40077088A1528258A15F9007908031D732EBB
:101CE400742E782E8A151F238A15F9007908031D8E
:101CF4007C2E7D2E8D2E7830F2008A1592248A1542
:101D0400F9007808031D872E882E8D2E7908031973
:101D14008C2E8D2E7D2E7908031D912E922E982EB9
:101D24007608F2008A1550248A15F900790808000B
:101D340083120313AD012D30F9008A114C278A1543
:101D4400003A0319A62EA72EA82EDB2E8A15D0231F
:101D54008A151930831203132D02031CB22EB32EDD
:101D6400B72E01308A1535238A15323083120313B6
:101D74002D02031CBE2EBF2EC32E01308A1547230D
:101D84008A154B30831203132D02031CCA2ECB2E4B
:101D9400CF2E01308A1551238A1564308312031320
:101DA4002D02031CD62ED72EDB2E01308A152C23B0
:101DB4008A150800F40083160313AE01AF01142F33
:101DC4007403031DE62EE72E1F2F0130AE00AD0174
:101DD400B0011F2F72030319F02EF12EF62E730398
:101DE400031DF52EF62E1F2F0130AF000130AD007C
:101DF4000130B000B401B5011F2F0130B40703183E
:101E0400B50A0030B507013035022C30031934020D
:101E1400031C0D2F0E2F1F2F0230AD00B001B40193
:101E2400B5011F2F2D08003A0319EC2E013A0319AE
:101E3400FF2E033A0319E22E0E2F080000308312FE
:101E44000313A4000030A3000030A2000030A1005E
:101E5400721C2D2F2E2F452F7608A107770803110A
:101E64000318013E0319372FA2077808031103183A
:101E7400013E03193E2FA307790803110318013EFD
:101E84000319452FA4070130A0000310F60DF70D28
:101E9400F80DF90DA00B472F01300310F50CF40CCD
:101EA400F30CF20CFF3E031D4F2F750874047304EA
:101EB4007204031D5E2F5F2F2A2F2408F5002308C8
:101EC400F4002208F3002108F2000800831203132F
:101ED400A0018A1528248A1583120313A0048A15E5
:101EE40066258A1583120313A0048A158A258A1588
:101EF40083120313A0048A153C248A158312031346
:101F0400A0048A1588238A1583120313A0048A1552
:101F14001A238A1583120313A0048A1565248A15CB
:101F240083120313A0048A1566238A1583120313EC
:101F3400A00483160313E401E301E001E101E201DB
:101F4400C201C101C001BF01B801B901B601B701A5
:101F5400BE01BD010230D900DA01DB01DC01080059
:101F6400F700F60174080319B82FB92FCB2F77089F
:101F74008A15B2238A15003A0319C12FC22FCB2F19
:101F840073088A155B238A15003A031DCA2FCB2FC9
:101F9400F62F0130F600FE2F740884008312031319
:101FA4000508F500730AD82F0310F50CFF3E031D36
:101FB400D62F750880007408840001308005FE2F38
:101FC40074088400831203130708F500730AEC2FC6
:101FD4000310F50CFF3E031DEA2F750880007408FA
:101FE400840001308005FE2F7708003A0319CE2FB4
:0C1FF400013A0319E22FCB2F76080800F9
:02400E00D43CA0
:00000001FF
